{
  "address": "0x2E8147AF6068F1F28f6606EDf1791D8C31146C5B",
  "abi": [
    {
      "inputs": [
        {
          "internalType": "uint256",
          "name": "amount",
          "type": "uint256"
        }
      ],
      "stateMutability": "nonpayable",
      "type": "constructor"
    },
    {
      "inputs": [
        {
          "internalType": "address",
          "name": "spender",
          "type": "address"
        },
        {
          "internalType": "uint256",
          "name": "allowance",
          "type": "uint256"
        },
        {
          "internalType": "uint256",
          "name": "needed",
          "type": "uint256"
        }
      ],
      "name": "ERC20InsufficientAllowance",
      "type": "error"
    },
    {
      "inputs": [
        {
          "internalType": "address",
          "name": "sender",
          "type": "address"
        },
        {
          "internalType": "uint256",
          "name": "balance",
          "type": "uint256"
        },
        {
          "internalType": "uint256",
          "name": "needed",
          "type": "uint256"
        }
      ],
      "name": "ERC20InsufficientBalance",
      "type": "error"
    },
    {
      "inputs": [
        {
          "internalType": "address",
          "name": "approver",
          "type": "address"
        }
      ],
      "name": "ERC20InvalidApprover",
      "type": "error"
    },
    {
      "inputs": [
        {
          "internalType": "address",
          "name": "receiver",
          "type": "address"
        }
      ],
      "name": "ERC20InvalidReceiver",
      "type": "error"
    },
    {
      "inputs": [
        {
          "internalType": "address",
          "name": "sender",
          "type": "address"
        }
      ],
      "name": "ERC20InvalidSender",
      "type": "error"
    },
    {
      "inputs": [
        {
          "internalType": "address",
          "name": "spender",
          "type": "address"
        }
      ],
      "name": "ERC20InvalidSpender",
      "type": "error"
    },
    {
      "anonymous": false,
      "inputs": [
        {
          "indexed": true,
          "internalType": "address",
          "name": "owner",
          "type": "address"
        },
        {
          "indexed": true,
          "internalType": "address",
          "name": "spender",
          "type": "address"
        },
        {
          "indexed": false,
          "internalType": "uint256",
          "name": "value",
          "type": "uint256"
        }
      ],
      "name": "Approval",
      "type": "event"
    },
    {
      "anonymous": false,
      "inputs": [
        {
          "indexed": true,
          "internalType": "address",
          "name": "from",
          "type": "address"
        },
        {
          "indexed": true,
          "internalType": "address",
          "name": "to",
          "type": "address"
        },
        {
          "indexed": false,
          "internalType": "uint256",
          "name": "value",
          "type": "uint256"
        }
      ],
      "name": "Transfer",
      "type": "event"
    },
    {
      "inputs": [
        {
          "internalType": "address",
          "name": "owner",
          "type": "address"
        },
        {
          "internalType": "address",
          "name": "spender",
          "type": "address"
        }
      ],
      "name": "allowance",
      "outputs": [
        {
          "internalType": "uint256",
          "name": "",
          "type": "uint256"
        }
      ],
      "stateMutability": "view",
      "type": "function"
    },
    {
      "inputs": [
        {
          "internalType": "address",
          "name": "spender",
          "type": "address"
        },
        {
          "internalType": "uint256",
          "name": "value",
          "type": "uint256"
        }
      ],
      "name": "approve",
      "outputs": [
        {
          "internalType": "bool",
          "name": "",
          "type": "bool"
        }
      ],
      "stateMutability": "nonpayable",
      "type": "function"
    },
    {
      "inputs": [
        {
          "internalType": "address",
          "name": "account",
          "type": "address"
        }
      ],
      "name": "balanceOf",
      "outputs": [
        {
          "internalType": "uint256",
          "name": "",
          "type": "uint256"
        }
      ],
      "stateMutability": "view",
      "type": "function"
    },
    {
      "inputs": [],
      "name": "decimals",
      "outputs": [
        {
          "internalType": "uint8",
          "name": "",
          "type": "uint8"
        }
      ],
      "stateMutability": "view",
      "type": "function"
    },
    {
      "inputs": [
        {
          "internalType": "uint256",
          "name": "amount",
          "type": "uint256"
        }
      ],
      "name": "mint",
      "outputs": [],
      "stateMutability": "nonpayable",
      "type": "function"
    },
    {
      "inputs": [],
      "name": "name",
      "outputs": [
        {
          "internalType": "string",
          "name": "",
          "type": "string"
        }
      ],
      "stateMutability": "view",
      "type": "function"
    },
    {
      "inputs": [],
      "name": "symbol",
      "outputs": [
        {
          "internalType": "string",
          "name": "",
          "type": "string"
        }
      ],
      "stateMutability": "view",
      "type": "function"
    },
    {
      "inputs": [],
      "name": "totalSupply",
      "outputs": [
        {
          "internalType": "uint256",
          "name": "",
          "type": "uint256"
        }
      ],
      "stateMutability": "view",
      "type": "function"
    },
    {
      "inputs": [
        {
          "internalType": "address",
          "name": "to",
          "type": "address"
        },
        {
          "internalType": "uint256",
          "name": "value",
          "type": "uint256"
        }
      ],
      "name": "transfer",
      "outputs": [
        {
          "internalType": "bool",
          "name": "",
          "type": "bool"
        }
      ],
      "stateMutability": "nonpayable",
      "type": "function"
    },
    {
      "inputs": [
        {
          "internalType": "address",
          "name": "from",
          "type": "address"
        },
        {
          "internalType": "address",
          "name": "to",
          "type": "address"
        },
        {
          "internalType": "uint256",
          "name": "value",
          "type": "uint256"
        }
      ],
      "name": "transferFrom",
      "outputs": [
        {
          "internalType": "bool",
          "name": "",
          "type": "bool"
        }
      ],
      "stateMutability": "nonpayable",
      "type": "function"
    }
  ],
  "transactionHash": "0xd43321ec6908d108b171749cec13a9aa816bcb3cc7dae742e30fa5bdca658370",
  "args": [
    1000
  ],
  "numDeployments": 1,
  "solcInputHash": "9c01772c6f0baf35fe508b6c6dbaf78b",
  "bytecode": "0x608060405234801561001057600080fd5b50604051610dbb380380610dbb83398101604081905261002f9161022c565b6040518060400160405280600881526020016726bcaa37b5b2b71960c11b8152506040518060400160405280600481526020016326aa259960e11b815250816003908161007c91906102e4565b50600461008982826102e4565b5050506100b83361009e6100be60201b60201c565b6100a990600a6104a1565b6100b390846104b7565b6100c3565b506104e1565b601290565b6001600160a01b0382166100f25760405163ec442f0560e01b8152600060048201526024015b60405180910390fd5b6100fe60008383610102565b5050565b6001600160a01b03831661012d57806002600082825461012291906104ce565b9091555061019f9050565b6001600160a01b038316600090815260208190526040902054818110156101805760405163391434e360e21b81526001600160a01b038516600482015260248101829052604481018390526064016100e9565b6001600160a01b03841660009081526020819052604090209082900390555b6001600160a01b0382166101bb576002805482900390556101da565b6001600160a01b03821660009081526020819052604090208054820190555b816001600160a01b0316836001600160a01b03167fddf252ad1be2c89b69c2b068fc378daa952ba7f163c4a11628f55a4df523b3ef8360405161021f91815260200190565b60405180910390a3505050565b60006020828403121561023e57600080fd5b5051919050565b634e487b7160e01b600052604160045260246000fd5b600181811c9082168061026f57607f821691505b60208210810361028f57634e487b7160e01b600052602260045260246000fd5b50919050565b601f8211156102df57806000526020600020601f840160051c810160208510156102bc5750805b601f840160051c820191505b818110156102dc57600081556001016102c8565b50505b505050565b81516001600160401b038111156102fd576102fd610245565b6103118161030b845461025b565b84610295565b6020601f821160018114610345576000831561032d5750848201515b600019600385901b1c1916600184901b1784556102dc565b600084815260208120601f198516915b828110156103755787850151825560209485019460019092019101610355565b50848210156103935786840151600019600387901b60f8161c191681555b50505050600190811b01905550565b634e487b7160e01b600052601160045260246000fd5b6001815b60018411156103f3578085048111156103d7576103d76103a2565b60018416156103e557908102905b60019390931c9280026103bc565b935093915050565b60008261040a5750600161049b565b816104175750600061049b565b816001811461042d576002811461043757610453565b600191505061049b565b60ff841115610448576104486103a2565b50506001821b61049b565b5060208310610133831016604e8410600b8410161715610476575081810a61049b565b61048360001984846103b8565b8060001904821115610497576104976103a2565b0290505b92915050565b60006104b060ff8416836103fb565b9392505050565b808202811582820484141761049b5761049b6103a2565b8082018082111561049b5761049b6103a2565b6108cb806104f06000396000f3fe608060405234801561001057600080fd5b506004361061009e5760003560e01c806370a082311161006657806370a082311461011857806395d89b4114610141578063a0712d6814610149578063a9059cbb1461015e578063dd62ed3e1461017157600080fd5b806306fdde03146100a3578063095ea7b3146100c157806318160ddd146100e457806323b872dd146100f6578063313ce56714610109575b600080fd5b6100ab6101aa565b6040516100b891906105e6565b60405180910390f35b6100d46100cf366004610650565b61023c565b60405190151581526020016100b8565b6002545b6040519081526020016100b8565b6100d461010436600461067a565b610256565b604051601281526020016100b8565b6100e86101263660046106b7565b6001600160a01b031660009081526020819052604090205490565b6100ab61027a565b61015c6101573660046106d9565b610289565b005b6100d461016c366004610650565b6102ab565b6100e861017f3660046106f2565b6001600160a01b03918216600090815260016020908152604080832093909416825291909152205490565b6060600380546101b990610725565b80601f01602080910402602001604051908101604052809291908181526020018280546101e590610725565b80156102325780601f1061020757610100808354040283529160200191610232565b820191906000526020600020905b81548152906001019060200180831161021557829003601f168201915b5050505050905090565b60003361024a8185856102b9565b60019150505b92915050565b6000336102648582856102cb565b61026f85858561034e565b506001949350505050565b6060600480546101b990610725565b6102a8336102996012600a61085c565b6102a3908461086b565b6103ad565b50565b60003361024a81858561034e565b6102c683838360016103e7565b505050565b6001600160a01b038381166000908152600160209081526040808320938616835292905220546000198114610348578181101561033957604051637dc7a0d960e11b81526001600160a01b038416600482015260248101829052604481018390526064015b60405180910390fd5b610348848484840360006103e7565b50505050565b6001600160a01b03831661037857604051634b637e8f60e11b815260006004820152602401610330565b6001600160a01b0382166103a25760405163ec442f0560e01b815260006004820152602401610330565b6102c68383836104bc565b6001600160a01b0382166103d75760405163ec442f0560e01b815260006004820152602401610330565b6103e3600083836104bc565b5050565b6001600160a01b0384166104115760405163e602df0560e01b815260006004820152602401610330565b6001600160a01b03831661043b57604051634a1406b160e11b815260006004820152602401610330565b6001600160a01b038085166000908152600160209081526040808320938716835292905220829055801561034857826001600160a01b0316846001600160a01b03167f8c5be1e5ebec7d5bd14f71427d1e84f3dd0314c0f7b2291e5b200ac8c7c3b925846040516104ae91815260200190565b60405180910390a350505050565b6001600160a01b0383166104e75780600260008282546104dc9190610882565b909155506105599050565b6001600160a01b0383166000908152602081905260409020548181101561053a5760405163391434e360e21b81526001600160a01b03851660048201526024810182905260448101839052606401610330565b6001600160a01b03841660009081526020819052604090209082900390555b6001600160a01b03821661057557600280548290039055610594565b6001600160a01b03821660009081526020819052604090208054820190555b816001600160a01b0316836001600160a01b03167fddf252ad1be2c89b69c2b068fc378daa952ba7f163c4a11628f55a4df523b3ef836040516105d991815260200190565b60405180910390a3505050565b602081526000825180602084015260005b8181101561061457602081860181015160408684010152016105f7565b506000604082850101526040601f19601f83011684010191505092915050565b80356001600160a01b038116811461064b57600080fd5b919050565b6000806040838503121561066357600080fd5b61066c83610634565b946020939093013593505050565b60008060006060848603121561068f57600080fd5b61069884610634565b92506106a660208501610634565b929592945050506040919091013590565b6000602082840312156106c957600080fd5b6106d282610634565b9392505050565b6000602082840312156106eb57600080fd5b5035919050565b6000806040838503121561070557600080fd5b61070e83610634565b915061071c60208401610634565b90509250929050565b600181811c9082168061073957607f821691505b60208210810361075957634e487b7160e01b600052602260045260246000fd5b50919050565b634e487b7160e01b600052601160045260246000fd5b6001815b60018411156107b0578085048111156107945761079461075f565b60018416156107a257908102905b60019390931c928002610779565b935093915050565b6000826107c757506001610250565b816107d457506000610250565b81600181146107ea57600281146107f457610810565b6001915050610250565b60ff8411156108055761080561075f565b50506001821b610250565b5060208310610133831016604e8410600b8410161715610833575081810a610250565b6108406000198484610775565b80600019048211156108545761085461075f565b029392505050565b60006106d260ff8416836107b8565b80820281158282048414176102505761025061075f565b808201808211156102505761025061075f56fea2646970667358221220445ac95804a07b98688e325afeb183748cd3832609cc9c5812450efe8d8a9d1764736f6c634300081b0033",
  "devdoc": {
    "author": "Gasquez_Jonatan",
    "errors": {
      "ERC20InsufficientAllowance(address,uint256,uint256)": [
        {
          "details": "Indicates a failure with the `spender`s `allowance`. Used in transfers.",
          "params": {
            "allowance": "Amount of tokens a `spender` is allowed to operate with.",
            "needed": "Minimum amount required to perform a transfer.",
            "spender": "Address that may be allowed to operate on tokens without being their owner."
          }
        }
      ],
      "ERC20InsufficientBalance(address,uint256,uint256)": [
        {
          "details": "Indicates an error related to the current `balance` of a `sender`. Used in transfers.",
          "params": {
            "balance": "Current balance for the interacting account.",
            "needed": "Minimum amount required to perform a transfer.",
            "sender": "Address whose tokens are being transferred."
          }
        }
      ],
      "ERC20InvalidApprover(address)": [
        {
          "details": "Indicates a failure with the `approver` of a token to be approved. Used in approvals.",
          "params": {
            "approver": "Address initiating an approval operation."
          }
        }
      ],
      "ERC20InvalidReceiver(address)": [
        {
          "details": "Indicates a failure with the token `receiver`. Used in transfers.",
          "params": {
            "receiver": "Address to which tokens are being transferred."
          }
        }
      ],
      "ERC20InvalidSender(address)": [
        {
          "details": "Indicates a failure with the token `sender`. Used in transfers.",
          "params": {
            "sender": "Address whose tokens are being transferred."
          }
        }
      ],
      "ERC20InvalidSpender(address)": [
        {
          "details": "Indicates a failure with the `spender` to be approved. Used in approvals.",
          "params": {
            "spender": "Address that may be allowed to operate on tokens without being their owner."
          }
        }
      ]
    },
    "events": {
      "Approval(address,address,uint256)": {
        "details": "Emitted when the allowance of a `spender` for an `owner` is set by a call to {approve}. `value` is the new allowance."
      },
      "Transfer(address,address,uint256)": {
        "details": "Emitted when `value` tokens are moved from one account (`from`) to another (`to`). Note that `value` may be zero."
      }
    },
    "kind": "dev",
    "methods": {
      "allowance(address,address)": {
        "details": "See {IERC20-allowance}."
      },
      "approve(address,uint256)": {
        "details": "See {IERC20-approve}. NOTE: If `value` is the maximum `uint256`, the allowance is not updated on `transferFrom`. This is semantically equivalent to an infinite approval. Requirements: - `spender` cannot be the zero address."
      },
      "balanceOf(address)": {
        "details": "See {IERC20-balanceOf}."
      },
      "decimals()": {
        "details": "Returns the number of decimals used to get its user representation. For example, if `decimals` equals `2`, a balance of `505` tokens should be displayed to a user as `5.05` (`505 / 10 ** 2`). Tokens usually opt for a value of 18, imitating the relationship between Ether and Wei. This is the default value returned by this function, unless it's overridden. NOTE: This information is only used for _display_ purposes: it in no way affects any of the arithmetic of the contract, including {IERC20-balanceOf} and {IERC20-transfer}."
      },
      "name()": {
        "details": "Returns the name of the token."
      },
      "symbol()": {
        "details": "Returns the symbol of the token, usually a shorter version of the name."
      },
      "totalSupply()": {
        "details": "See {IERC20-totalSupply}."
      },
      "transfer(address,uint256)": {
        "details": "See {IERC20-transfer}. Requirements: - `to` cannot be the zero address. - the caller must have a balance of at least `value`."
      },
      "transferFrom(address,address,uint256)": {
        "details": "See {IERC20-transferFrom}. Emits an {Approval} event indicating the updated allowance. This is not required by the EIP. See the note at the beginning of {ERC20}. NOTE: Does not update the allowance if the current allowance is the maximum `uint256`. Requirements: - `from` and `to` cannot be the zero address. - `from` must have a balance of at least `value`. - the caller must have allowance for ``from``'s tokens of at least `value`."
      }
    },
    "title": "MyToken",
    "version": 1
  },
  "userdoc": {
    "kind": "user",
    "methods": {},
    "notice": "A basic ERC20 token with a minting function.",
    "version": 1
  },
  "storageLayout": {
    "storage": [
      {
        "astId": 159,
        "contract": "contracts/MyToken2.sol:MyToken2",
        "label": "_balances",
        "offset": 0,
        "slot": "0",
        "type": "t_mapping(t_address,t_uint256)"
      },
      {
        "astId": 165,
        "contract": "contracts/MyToken2.sol:MyToken2",
        "label": "_allowances",
        "offset": 0,
        "slot": "1",
        "type": "t_mapping(t_address,t_mapping(t_address,t_uint256))"
      },
      {
        "astId": 167,
        "contract": "contracts/MyToken2.sol:MyToken2",
        "label": "_totalSupply",
        "offset": 0,
        "slot": "2",
        "type": "t_uint256"
      },
      {
        "astId": 169,
        "contract": "contracts/MyToken2.sol:MyToken2",
        "label": "_name",
        "offset": 0,
        "slot": "3",
        "type": "t_string_storage"
      },
      {
        "astId": 171,
        "contract": "contracts/MyToken2.sol:MyToken2",
        "label": "_symbol",
        "offset": 0,
        "slot": "4",
        "type": "t_string_storage"
      }
    ],
    "types": {
      "t_address": {
        "encoding": "inplace",
        "label": "address",
        "numberOfBytes": "20"
      },
      "t_mapping(t_address,t_mapping(t_address,t_uint256))": {
        "encoding": "mapping",
        "key": "t_address",
        "label": "mapping(address => mapping(address => uint256))",
        "numberOfBytes": "32",
        "value": "t_mapping(t_address,t_uint256)"
      },
      "t_mapping(t_address,t_uint256)": {
        "encoding": "mapping",
        "key": "t_address",
        "label": "mapping(address => uint256)",
        "numberOfBytes": "32",
        "value": "t_uint256"
      },
      "t_string_storage": {
        "encoding": "bytes",
        "label": "string",
        "numberOfBytes": "32"
      },
      "t_uint256": {
        "encoding": "inplace",
        "label": "uint256",
        "numberOfBytes": "32"
      }
    }
  }
}