{
  "address": "0x4251C346a0007e9c878c0A194aa091a468327ca0",
  "abi": [
    {
      "inputs": [],
      "stateMutability": "nonpayable",
      "type": "constructor"
    },
    {
      "inputs": [
        {
          "internalType": "address",
          "name": "spender",
          "type": "address"
        },
        {
          "internalType": "uint256",
          "name": "allowance",
          "type": "uint256"
        },
        {
          "internalType": "uint256",
          "name": "needed",
          "type": "uint256"
        }
      ],
      "name": "ERC20InsufficientAllowance",
      "type": "error"
    },
    {
      "inputs": [
        {
          "internalType": "address",
          "name": "sender",
          "type": "address"
        },
        {
          "internalType": "uint256",
          "name": "balance",
          "type": "uint256"
        },
        {
          "internalType": "uint256",
          "name": "needed",
          "type": "uint256"
        }
      ],
      "name": "ERC20InsufficientBalance",
      "type": "error"
    },
    {
      "inputs": [
        {
          "internalType": "address",
          "name": "approver",
          "type": "address"
        }
      ],
      "name": "ERC20InvalidApprover",
      "type": "error"
    },
    {
      "inputs": [
        {
          "internalType": "address",
          "name": "receiver",
          "type": "address"
        }
      ],
      "name": "ERC20InvalidReceiver",
      "type": "error"
    },
    {
      "inputs": [
        {
          "internalType": "address",
          "name": "sender",
          "type": "address"
        }
      ],
      "name": "ERC20InvalidSender",
      "type": "error"
    },
    {
      "inputs": [
        {
          "internalType": "address",
          "name": "spender",
          "type": "address"
        }
      ],
      "name": "ERC20InvalidSpender",
      "type": "error"
    },
    {
      "anonymous": false,
      "inputs": [
        {
          "indexed": true,
          "internalType": "address",
          "name": "owner",
          "type": "address"
        },
        {
          "indexed": true,
          "internalType": "address",
          "name": "spender",
          "type": "address"
        },
        {
          "indexed": false,
          "internalType": "uint256",
          "name": "value",
          "type": "uint256"
        }
      ],
      "name": "Approval",
      "type": "event"
    },
    {
      "anonymous": false,
      "inputs": [
        {
          "indexed": true,
          "internalType": "address",
          "name": "from",
          "type": "address"
        },
        {
          "indexed": true,
          "internalType": "address",
          "name": "to",
          "type": "address"
        },
        {
          "indexed": false,
          "internalType": "uint256",
          "name": "value",
          "type": "uint256"
        }
      ],
      "name": "Transfer",
      "type": "event"
    },
    {
      "inputs": [
        {
          "internalType": "address",
          "name": "_tokenA",
          "type": "address"
        },
        {
          "internalType": "address",
          "name": "_tokenB",
          "type": "address"
        },
        {
          "internalType": "uint256",
          "name": "amountADesired",
          "type": "uint256"
        },
        {
          "internalType": "uint256",
          "name": "amountBDesired",
          "type": "uint256"
        },
        {
          "internalType": "uint256",
          "name": "amountAMin",
          "type": "uint256"
        },
        {
          "internalType": "uint256",
          "name": "amountBMin",
          "type": "uint256"
        },
        {
          "internalType": "address",
          "name": "to",
          "type": "address"
        },
        {
          "internalType": "uint256",
          "name": "deadline",
          "type": "uint256"
        }
      ],
      "name": "addLiquidity",
      "outputs": [
        {
          "internalType": "uint256",
          "name": "amountA",
          "type": "uint256"
        },
        {
          "internalType": "uint256",
          "name": "amountB",
          "type": "uint256"
        },
        {
          "internalType": "uint256",
          "name": "liquidity",
          "type": "uint256"
        }
      ],
      "stateMutability": "nonpayable",
      "type": "function"
    },
    {
      "inputs": [
        {
          "internalType": "address",
          "name": "owner",
          "type": "address"
        },
        {
          "internalType": "address",
          "name": "spender",
          "type": "address"
        }
      ],
      "name": "allowance",
      "outputs": [
        {
          "internalType": "uint256",
          "name": "",
          "type": "uint256"
        }
      ],
      "stateMutability": "view",
      "type": "function"
    },
    {
      "inputs": [
        {
          "internalType": "address",
          "name": "spender",
          "type": "address"
        },
        {
          "internalType": "uint256",
          "name": "value",
          "type": "uint256"
        }
      ],
      "name": "approve",
      "outputs": [
        {
          "internalType": "bool",
          "name": "",
          "type": "bool"
        }
      ],
      "stateMutability": "nonpayable",
      "type": "function"
    },
    {
      "inputs": [
        {
          "internalType": "address",
          "name": "account",
          "type": "address"
        }
      ],
      "name": "balanceOf",
      "outputs": [
        {
          "internalType": "uint256",
          "name": "",
          "type": "uint256"
        }
      ],
      "stateMutability": "view",
      "type": "function"
    },
    {
      "inputs": [],
      "name": "decimals",
      "outputs": [
        {
          "internalType": "uint8",
          "name": "",
          "type": "uint8"
        }
      ],
      "stateMutability": "view",
      "type": "function"
    },
    {
      "inputs": [
        {
          "internalType": "uint256",
          "name": "amountIn",
          "type": "uint256"
        },
        {
          "internalType": "uint256",
          "name": "_reserveIn",
          "type": "uint256"
        },
        {
          "internalType": "uint256",
          "name": "_reserveOut",
          "type": "uint256"
        }
      ],
      "name": "getAmountOut",
      "outputs": [
        {
          "internalType": "uint256",
          "name": "amountOut",
          "type": "uint256"
        }
      ],
      "stateMutability": "pure",
      "type": "function"
    },
    {
      "inputs": [
        {
          "internalType": "address",
          "name": "_tokenA",
          "type": "address"
        },
        {
          "internalType": "address",
          "name": "_tokenB",
          "type": "address"
        }
      ],
      "name": "getPrice",
      "outputs": [
        {
          "internalType": "uint256",
          "name": "price",
          "type": "uint256"
        }
      ],
      "stateMutability": "view",
      "type": "function"
    },
    {
      "inputs": [],
      "name": "name",
      "outputs": [
        {
          "internalType": "string",
          "name": "",
          "type": "string"
        }
      ],
      "stateMutability": "view",
      "type": "function"
    },
    {
      "inputs": [
        {
          "internalType": "address",
          "name": "_tokenA",
          "type": "address"
        },
        {
          "internalType": "address",
          "name": "_tokenB",
          "type": "address"
        },
        {
          "internalType": "uint256",
          "name": "liquidity",
          "type": "uint256"
        },
        {
          "internalType": "uint256",
          "name": "amountAMin",
          "type": "uint256"
        },
        {
          "internalType": "uint256",
          "name": "amountBMin",
          "type": "uint256"
        },
        {
          "internalType": "address",
          "name": "to",
          "type": "address"
        },
        {
          "internalType": "uint256",
          "name": "deadline",
          "type": "uint256"
        }
      ],
      "name": "removeLiquidity",
      "outputs": [
        {
          "internalType": "uint256",
          "name": "amountA",
          "type": "uint256"
        },
        {
          "internalType": "uint256",
          "name": "amountB",
          "type": "uint256"
        }
      ],
      "stateMutability": "nonpayable",
      "type": "function"
    },
    {
      "inputs": [],
      "name": "reserveA",
      "outputs": [
        {
          "internalType": "uint256",
          "name": "",
          "type": "uint256"
        }
      ],
      "stateMutability": "view",
      "type": "function"
    },
    {
      "inputs": [],
      "name": "reserveB",
      "outputs": [
        {
          "internalType": "uint256",
          "name": "",
          "type": "uint256"
        }
      ],
      "stateMutability": "view",
      "type": "function"
    },
    {
      "inputs": [
        {
          "internalType": "uint256",
          "name": "amountIn",
          "type": "uint256"
        },
        {
          "internalType": "uint256",
          "name": "amountOutMin",
          "type": "uint256"
        },
        {
          "internalType": "address[]",
          "name": "path",
          "type": "address[]"
        },
        {
          "internalType": "address",
          "name": "to",
          "type": "address"
        },
        {
          "internalType": "uint256",
          "name": "deadline",
          "type": "uint256"
        }
      ],
      "name": "swapExactTokensForTokens",
      "outputs": [],
      "stateMutability": "nonpayable",
      "type": "function"
    },
    {
      "inputs": [],
      "name": "symbol",
      "outputs": [
        {
          "internalType": "string",
          "name": "",
          "type": "string"
        }
      ],
      "stateMutability": "view",
      "type": "function"
    },
    {
      "inputs": [],
      "name": "tokenA",
      "outputs": [
        {
          "internalType": "contract IERC20",
          "name": "",
          "type": "address"
        }
      ],
      "stateMutability": "view",
      "type": "function"
    },
    {
      "inputs": [],
      "name": "tokenB",
      "outputs": [
        {
          "internalType": "contract IERC20",
          "name": "",
          "type": "address"
        }
      ],
      "stateMutability": "view",
      "type": "function"
    },
    {
      "inputs": [],
      "name": "totalSupply",
      "outputs": [
        {
          "internalType": "uint256",
          "name": "",
          "type": "uint256"
        }
      ],
      "stateMutability": "view",
      "type": "function"
    },
    {
      "inputs": [
        {
          "internalType": "address",
          "name": "to",
          "type": "address"
        },
        {
          "internalType": "uint256",
          "name": "value",
          "type": "uint256"
        }
      ],
      "name": "transfer",
      "outputs": [
        {
          "internalType": "bool",
          "name": "",
          "type": "bool"
        }
      ],
      "stateMutability": "nonpayable",
      "type": "function"
    },
    {
      "inputs": [
        {
          "internalType": "address",
          "name": "from",
          "type": "address"
        },
        {
          "internalType": "address",
          "name": "to",
          "type": "address"
        },
        {
          "internalType": "uint256",
          "name": "value",
          "type": "uint256"
        }
      ],
      "name": "transferFrom",
      "outputs": [
        {
          "internalType": "bool",
          "name": "",
          "type": "bool"
        }
      ],
      "stateMutability": "nonpayable",
      "type": "function"
    }
  ],
  "transactionHash": "0x030bb24bc684202c7480a6d23746f88c4eaddb63980543a7f13f1a2a9c487d08",
  "args": [],
  "numDeployments": 1,
  "solcInputHash": "f2162aa950088d97b60da5376d1f6e7b",
  "bytecode": "0x608060405234801561001057600080fd5b506040518060400160405280600d81526020016c053696d706c6553776170204c5609c1b81525060405180604001604052806004815260200163053534c560e41b81525081600390816100639190610117565b5060046100708282610117565b5050506101d5565b634e487b7160e01b600052604160045260246000fd5b600181811c908216806100a257607f821691505b6020821081036100c257634e487b7160e01b600052602260045260246000fd5b50919050565b601f82111561011257806000526020600020601f840160051c810160208510156100ef5750805b601f840160051c820191505b8181101561010f57600081556001016100fb565b50505b505050565b81516001600160401b0381111561013057610130610078565b6101448161013e845461008e565b846100c8565b6020601f82116001811461017857600083156101605750848201515b600019600385901b1c1916600184901b17845561010f565b600084815260208120601f198516915b828110156101a85787850151825560209485019460019092019101610188565b50848210156101c65786840151600019600387901b60f8161c191681555b50505050600190811b01905550565b6118e8806101e46000396000f3fe608060405234801561001057600080fd5b50600436106101165760003560e01c80635f64b55b116100a2578063ac41865a11610071578063ac41865a14610243578063baa2abde14610256578063dc5fa6c51461027e578063dd62ed3e14610287578063e8e33700146102c057600080fd5b80635f64b55b146101ec57806370a08231146101ff57806395d89b4114610228578063a9059cbb1461023057600080fd5b806318160ddd116100e957806318160ddd146101a457806319e36f3b146101ac57806323b872dd146101b5578063313ce567146101c857806338ed1739146101d757600080fd5b8063054d50d41461011b57806306fdde0314610141578063095ea7b3146101565780630fc63d1014610179575b600080fd5b61012e61012936600461141c565b6102ee565b6040519081526020015b60405180910390f35b610149610407565b6040516101389190611448565b6101696101643660046114ad565b610499565b6040519015158152602001610138565b60055461018c906001600160a01b031681565b6040516001600160a01b039091168152602001610138565b60025461012e565b61012e60085481565b6101696101c33660046114d7565b6104b3565b60405160128152602001610138565b6101ea6101e5366004611514565b6104d7565b005b60065461018c906001600160a01b031681565b61012e61020d3660046115ba565b6001600160a01b031660009081526020819052604090205490565b61014961094d565b61016961023e3660046114ad565b61095c565b61012e6102513660046115d5565b61096a565b610269610264366004611608565b610a2e565b60408051928352602083019190915201610138565b61012e60075481565b61012e6102953660046115d5565b6001600160a01b03918216600090815260016020908152604080832093909416825291909152205490565b6102d36102ce366004611675565b610cc9565b60408051938452602084019290925290820152606001610138565b60008084116103525760405162461bcd60e51b815260206004820152602560248201527f53696d706c65537761703a20494e53554646494349454e545f494e5055545f416044820152641353d5539560da1b60648201526084015b60405180910390fd5b6000831180156103625750600082115b6103b95760405162461bcd60e51b815260206004820152602260248201527f53696d706c65537761703a20494e53554646494349454e545f4c495155494449604482015261545960f01b6064820152608401610349565b60006103c7856103e5611701565b905060006103d58483611701565b90506000826103e6876103e8611701565b6103f09190611718565b90506103fc818361172b565b979650505050505050565b6060600380546104169061174d565b80601f01602080910402602001604051908101604052809291908181526020018280546104429061174d565b801561048f5780601f106104645761010080835404028352916020019161048f565b820191906000526020600020905b81548152906001019060200180831161047257829003601f168201915b5050505050905090565b6000336104a7818585611038565b60019150505b92915050565b6000336104c185828561104a565b6104cc8585856110c8565b506001949350505050565b428110156104f75760405162461bcd60e51b815260040161034990611781565b600283146105425760405162461bcd60e51b81526020600482015260186024820152770a6d2dae0d8caa6eec2e07440929cac82989288bea082a8960431b6044820152606401610349565b6005546001600160a01b0316848460008161055f5761055f6117ae565b905060200201602081019061057491906115ba565b6001600160a01b03161480156105c457506006546001600160a01b0316848460018181106105a4576105a46117ae565b90506020020160208101906105b991906115ba565b6001600160a01b0316145b8061064c57506006546001600160a01b031684846000816105e7576105e76117ae565b90506020020160208101906105fc91906115ba565b6001600160a01b031614801561064c57506005546001600160a01b03168484600181811061062c5761062c6117ae565b905060200201602081019061064191906115ba565b6001600160a01b0316145b6106935760405162461bcd60e51b81526020600482015260186024820152770a6d2dae0d8caa6eec2e07440929cac82989288bea082a8960431b6044820152606401610349565b60055460009081906001600160a01b0316868683816106b4576106b46117ae565b90506020020160208101906106c991906115ba565b6001600160a01b0316146106e2576008546007546106e9565b6007546008545b9150915060006106fa8984846102ee565b90508781101561075b5760405162461bcd60e51b815260206004820152602660248201527f53696d706c65537761703a20494e53554646494349454e545f4f55545055545f604482015265105353d5539560d21b6064820152608401610349565b8686600081811061076e5761076e6117ae565b905060200201602081019061078391906115ba565b6040516323b872dd60e01b8152336004820152306024820152604481018b90526001600160a01b0391909116906323b872dd906064016020604051808303816000875af11580156107d8573d6000803e3d6000fd5b505050506040513d601f19601f820116820180604052508101906107fc91906117c4565b506005546001600160a01b0316878760008161081a5761081a6117ae565b905060200201602081019061082f91906115ba565b6001600160a01b03160361087357886007600082825461084f9190611718565b92505081905550806008600082825461086891906117e6565b909155506108a49050565b88600860008282546108859190611718565b92505081905550806007600082825461089e91906117e6565b90915550505b868660018181106108b7576108b76117ae565b90506020020160208101906108cc91906115ba565b60405163a9059cbb60e01b81526001600160a01b03878116600483015260248201849052919091169063a9059cbb906044016020604051808303816000875af115801561091d573d6000803e3d6000fd5b505050506040513d601f19601f8201168201806040525081019061094191906117c4565b50505050505050505050565b6060600480546104169061174d565b6000336104a78185856110c8565b6005546000906001600160a01b03848116911614801561099757506006546001600160a01b038381169116145b6109b35760405162461bcd60e51b8152600401610349906117f9565b600060075411610a055760405162461bcd60e51b815260206004820152601b60248201527f53696d706c65537761703a20494e56414c49445f5245534552564500000000006044820152606401610349565b600754600854610a1d90670de0b6b3a7640000611701565b610a27919061172b565b9392505050565b60008042831015610a515760405162461bcd60e51b815260040161034990611781565b6005546001600160a01b038a81169116148015610a7b57506006546001600160a01b038981169116145b610a975760405162461bcd60e51b8152600401610349906117f9565b33600090815260208190526040902054871115610b075760405162461bcd60e51b815260206004820152602860248201527f53696d706c65537761703a20494e53554646494349454e545f4c505f544f4b456044820152671397d0955493915160c21b6064820152608401610349565b6000806000600754600854610b1b60025490565b9194509250905080610b2d848c611701565b610b37919061172b565b945080610b44838c611701565b610b4e919061172b565b935088851015610b705760405162461bcd60e51b815260040161034990611830565b87841015610b905760405162461bcd60e51b815260040161034990611871565b610b9a338b611127565b8460076000828254610bac91906117e6565b925050819055508360086000828254610bc591906117e6565b909155505060055460405163a9059cbb60e01b81526001600160a01b038981166004830152602482018890529091169063a9059cbb906044016020604051808303816000875af1158015610c1d573d6000803e3d6000fd5b505050506040513d601f19601f82011682018060405250810190610c4191906117c4565b5060065460405163a9059cbb60e01b81526001600160a01b038981166004830152602482018790529091169063a9059cbb906044016020604051808303816000875af1158015610c95573d6000803e3d6000fd5b505050506040513d601f19601f82011682018060405250810190610cb991906117c4565b5050505097509795505050505050565b600080600042841015610cee5760405162461bcd60e51b815260040161034990611781565b6005546001600160a01b0316158015610d1057506006546001600160a01b0316155b15610d4657600580546001600160a01b03808e166001600160a01b03199283161790925560068054928d16929091169190911790555b6005546001600160a01b038c81169116148015610d7057506006546001600160a01b038b81169116145b610d8c5760405162461bcd60e51b8152600401610349906117f9565b60075460085481158015610d9e575080155b15610dae578a9450899350610e3a565b600082610dbb838e611701565b610dc5919061172b565b90508a8111610df95788811015610dee5760405162461bcd60e51b815260040161034990611871565b8b9550809450610e38565b600082610e06858e611701565b610e10919061172b565b90508a811015610e325760405162461bcd60e51b815260040161034990611830565b95508a94505b505b6005546040516323b872dd60e01b8152336004820152306024820152604481018790526001600160a01b03909116906323b872dd906064016020604051808303816000875af1158015610e91573d6000803e3d6000fd5b505050506040513d601f19601f82011682018060405250810190610eb591906117c4565b506006546040516323b872dd60e01b8152336004820152306024820152604481018690526001600160a01b03909116906323b872dd906064016020604051808303816000875af1158015610f0d573d6000803e3d6000fd5b505050506040513d601f19601f82011682018060405250810190610f3191906117c4565b508460076000828254610f449190611718565b925050819055508360086000828254610f5d9190611718565b909155505060025480600003610f8657610f7f610f7a8688611701565b611161565b9350610fbb565b610fb883610f948389611701565b610f9e919061172b565b83610fa98489611701565b610fb3919061172b565b6111d1565b93505b6000841161101d5760405162461bcd60e51b815260206004820152602960248201527f53696d706c65537761703a20494e53554646494349454e545f4c495155494449604482015268151657d3525395115160ba1b6064820152608401610349565b61102788856111e7565b505050985098509895505050505050565b611045838383600161121d565b505050565b6001600160a01b0383811660009081526001602090815260408083209386168352929052205460001981146110c257818110156110b357604051637dc7a0d960e11b81526001600160a01b03841660048201526024810182905260448101839052606401610349565b6110c28484848403600061121d565b50505050565b6001600160a01b0383166110f257604051634b637e8f60e11b815260006004820152602401610349565b6001600160a01b03821661111c5760405163ec442f0560e01b815260006004820152602401610349565b6110458383836112f2565b6001600160a01b03821661115157604051634b637e8f60e11b815260006004820152602401610349565b61115d826000836112f2565b5050565b600060038211156111c2575080600061117b60028361172b565b611186906001611718565b90505b818110156111bc579050806002816111a1818661172b565b6111ab9190611718565b6111b5919061172b565b9050611189565b50919050565b81156111cc575060015b919050565b60008183106111e05781610a27565b5090919050565b6001600160a01b0382166112115760405163ec442f0560e01b815260006004820152602401610349565b61115d600083836112f2565b6001600160a01b0384166112475760405163e602df0560e01b815260006004820152602401610349565b6001600160a01b03831661127157604051634a1406b160e11b815260006004820152602401610349565b6001600160a01b03808516600090815260016020908152604080832093871683529290522082905580156110c257826001600160a01b0316846001600160a01b03167f8c5be1e5ebec7d5bd14f71427d1e84f3dd0314c0f7b2291e5b200ac8c7c3b925846040516112e491815260200190565b60405180910390a350505050565b6001600160a01b03831661131d5780600260008282546113129190611718565b9091555061138f9050565b6001600160a01b038316600090815260208190526040902054818110156113705760405163391434e360e21b81526001600160a01b03851660048201526024810182905260448101839052606401610349565b6001600160a01b03841660009081526020819052604090209082900390555b6001600160a01b0382166113ab576002805482900390556113ca565b6001600160a01b03821660009081526020819052604090208054820190555b816001600160a01b0316836001600160a01b03167fddf252ad1be2c89b69c2b068fc378daa952ba7f163c4a11628f55a4df523b3ef8360405161140f91815260200190565b60405180910390a3505050565b60008060006060848603121561143157600080fd5b505081359360208301359350604090920135919050565b602081526000825180602084015260005b818110156114765760208186018101516040868401015201611459565b506000604082850101526040601f19601f83011684010191505092915050565b80356001600160a01b03811681146111cc57600080fd5b600080604083850312156114c057600080fd5b6114c983611496565b946020939093013593505050565b6000806000606084860312156114ec57600080fd5b6114f584611496565b925061150360208501611496565b929592945050506040919091013590565b60008060008060008060a0878903121561152d57600080fd5b8635955060208701359450604087013567ffffffffffffffff81111561155257600080fd5b8701601f8101891361156357600080fd5b803567ffffffffffffffff81111561157a57600080fd5b8960208260051b840101111561158f57600080fd5b602091909101945092506115a560608801611496565b95989497509295919493608090920135925050565b6000602082840312156115cc57600080fd5b610a2782611496565b600080604083850312156115e857600080fd5b6115f183611496565b91506115ff60208401611496565b90509250929050565b600080600080600080600060e0888a03121561162357600080fd5b61162c88611496565b965061163a60208901611496565b955060408801359450606088013593506080880135925061165d60a08901611496565b96999598509396929591949193505060c09091013590565b600080600080600080600080610100898b03121561169257600080fd5b61169b89611496565b97506116a960208a01611496565b965060408901359550606089013594506080890135935060a089013592506116d360c08a01611496565b979a969950949793969295919450919260e001359150565b634e487b7160e01b600052601160045260246000fd5b80820281158282048414176104ad576104ad6116eb565b808201808211156104ad576104ad6116eb565b60008261174857634e487b7160e01b600052601260045260246000fd5b500490565b600181811c9082168061176157607f821691505b6020821081036111bc57634e487b7160e01b600052602260045260246000fd5b60208082526013908201527214da5b5c1b1954ddd85c0e8811561412549151606a1b604082015260600190565b634e487b7160e01b600052603260045260246000fd5b6000602082840312156117d657600080fd5b81518015158114610a2757600080fd5b818103818111156104ad576104ad6116eb565b6020808252601a908201527f53696d706c65537761703a20494e56414c49445f544f4b454e53000000000000604082015260600190565b60208082526021908201527f53696d706c65537761703a20494e53554646494349454e545f415f414d4f554e6040820152601560fa1b606082015260800190565b60208082526021908201527f53696d706c65537761703a20494e53554646494349454e545f425f414d4f554e6040820152601560fa1b60608201526080019056fea2646970667358221220827333180314c3a720d012f12a9b799397cac30782381f6cfb3cf4b46ebad6c464736f6c634300081b0033",
  "devdoc": {
    "author": "Gasquez_Jonatan",
    "errors": {
      "ERC20InsufficientAllowance(address,uint256,uint256)": [
        {
          "details": "Indicates a failure with the `spender`s `allowance`. Used in transfers.",
          "params": {
            "allowance": "Amount of tokens a `spender` is allowed to operate with.",
            "needed": "Minimum amount required to perform a transfer.",
            "spender": "Address that may be allowed to operate on tokens without being their owner."
          }
        }
      ],
      "ERC20InsufficientBalance(address,uint256,uint256)": [
        {
          "details": "Indicates an error related to the current `balance` of a `sender`. Used in transfers.",
          "params": {
            "balance": "Current balance for the interacting account.",
            "needed": "Minimum amount required to perform a transfer.",
            "sender": "Address whose tokens are being transferred."
          }
        }
      ],
      "ERC20InvalidApprover(address)": [
        {
          "details": "Indicates a failure with the `approver` of a token to be approved. Used in approvals.",
          "params": {
            "approver": "Address initiating an approval operation."
          }
        }
      ],
      "ERC20InvalidReceiver(address)": [
        {
          "details": "Indicates a failure with the token `receiver`. Used in transfers.",
          "params": {
            "receiver": "Address to which tokens are being transferred."
          }
        }
      ],
      "ERC20InvalidSender(address)": [
        {
          "details": "Indicates a failure with the token `sender`. Used in transfers.",
          "params": {
            "sender": "Address whose tokens are being transferred."
          }
        }
      ],
      "ERC20InvalidSpender(address)": [
        {
          "details": "Indicates a failure with the `spender` to be approved. Used in approvals.",
          "params": {
            "spender": "Address that may be allowed to operate on tokens without being their owner."
          }
        }
      ]
    },
    "events": {
      "Approval(address,address,uint256)": {
        "details": "Emitted when the allowance of a `spender` for an `owner` is set by a call to {approve}. `value` is the new allowance."
      },
      "Transfer(address,address,uint256)": {
        "details": "Emitted when `value` tokens are moved from one account (`from`) to another (`to`). Note that `value` may be zero."
      }
    },
    "kind": "dev",
    "methods": {
      "addLiquidity(address,address,uint256,uint256,uint256,uint256,address,uint256)": {
        "details": "If the pool is empty, the initial token ratio is set. Otherwise, liquidity is added based on the existing ratio. Mints LP tokens to the provider.",
        "params": {
          "_tokenA": "The address of tokenA.",
          "_tokenB": "The address of tokenB.",
          "amountADesired": "The amount of tokenA the user wishes to add.",
          "amountAMin": "The minimum amount of tokenA to add, for slippage protection.",
          "amountBDesired": "The amount of tokenB the user wishes to add.",
          "amountBMin": "The minimum amount of tokenB to add, for slippage protection.",
          "deadline": "The timestamp after which the transaction will be reverted.",
          "to": "The address that will receive the LP tokens."
        },
        "returns": {
          "amountA": "The actual amount of tokenA added.",
          "amountB": "The actual amount of tokenB added.",
          "liquidity": "The amount of LP tokens minted."
        }
      },
      "allowance(address,address)": {
        "details": "See {IERC20-allowance}."
      },
      "approve(address,uint256)": {
        "details": "See {IERC20-approve}. NOTE: If `value` is the maximum `uint256`, the allowance is not updated on `transferFrom`. This is semantically equivalent to an infinite approval. Requirements: - `spender` cannot be the zero address."
      },
      "balanceOf(address)": {
        "details": "See {IERC20-balanceOf}."
      },
      "decimals()": {
        "details": "Returns the number of decimals used to get its user representation. For example, if `decimals` equals `2`, a balance of `505` tokens should be displayed to a user as `5.05` (`505 / 10 ** 2`). Tokens usually opt for a value of 18, imitating the relationship between Ether and Wei. This is the default value returned by this function, unless it's overridden. NOTE: This information is only used for _display_ purposes: it in no way affects any of the arithmetic of the contract, including {IERC20-balanceOf} and {IERC20-transfer}."
      },
      "getAmountOut(uint256,uint256,uint256)": {
        "details": "Applies a 0.3% fee to the input amount before calculation.",
        "params": {
          "_reserveIn": "The reserve of the input token in the pool.",
          "_reserveOut": "The reserve of the output token in the pool.",
          "amountIn": "The amount of the input token."
        },
        "returns": {
          "amountOut": "The calculated amount of the output token."
        }
      },
      "getPrice(address,address)": {
        "params": {
          "_tokenA": "The address of tokenA.",
          "_tokenB": "The address of tokenB."
        },
        "returns": {
          "price": "The price of tokenA denominated in tokenB, scaled by 1e18."
        }
      },
      "name()": {
        "details": "Returns the name of the token."
      },
      "removeLiquidity(address,address,uint256,uint256,uint256,address,uint256)": {
        "details": "Burns the user's LP tokens and sends them a proportional amount of tokenA and tokenB from the reserves.",
        "params": {
          "_tokenA": "The address of tokenA.",
          "_tokenB": "The address of tokenB.",
          "amountAMin": "The minimum amount of tokenA to receive, for slippage protection.",
          "amountBMin": "The minimum amount of tokenB to receive, for slippage protection.",
          "deadline": "The timestamp after which the transaction will be reverted.",
          "liquidity": "The amount of LP tokens to burn.",
          "to": "The address that will receive the underlying tokens."
        },
        "returns": {
          "amountA": "The actual amount of tokenA sent to the user.",
          "amountB": "The actual amount of tokenB sent to the user."
        }
      },
      "swapExactTokensForTokens(uint256,uint256,address[],address,uint256)": {
        "params": {
          "amountIn": "The exact amount of the input token to send.",
          "amountOutMin": "The minimum amount of the output token to receive, for slippage protection.",
          "deadline": "The timestamp after which the transaction will be reverted.",
          "path": "An array of token addresses representing the swap route. Must be 2 addresses.",
          "to": "The address that will receive the output tokens."
        }
      },
      "symbol()": {
        "details": "Returns the symbol of the token, usually a shorter version of the name."
      },
      "totalSupply()": {
        "details": "See {IERC20-totalSupply}."
      },
      "transfer(address,uint256)": {
        "details": "See {IERC20-transfer}. Requirements: - `to` cannot be the zero address. - the caller must have a balance of at least `value`."
      },
      "transferFrom(address,address,uint256)": {
        "details": "See {IERC20-transferFrom}. Emits an {Approval} event indicating the updated allowance. This is not required by the EIP. See the note at the beginning of {ERC20}. NOTE: Does not update the allowance if the current allowance is the maximum `uint256`. Requirements: - `from` and `to` cannot be the zero address. - `from` must have a balance of at least `value`. - the caller must have allowance for ``from``'s tokens of at least `value`."
      }
    },
    "title": "SimpleSwap",
    "version": 1
  },
  "userdoc": {
    "kind": "user",
    "methods": {
      "addLiquidity(address,address,uint256,uint256,uint256,uint256,address,uint256)": {
        "notice": "Adds liquidity to the pool for a pair of tokens."
      },
      "constructor": {
        "notice": "Initializes the contract, setting the name and symbol for the LP token."
      },
      "getAmountOut(uint256,uint256,uint256)": {
        "notice": "Calculates the amount of an output token to receive for a given amount of an input token."
      },
      "getPrice(address,address)": {
        "notice": "Calculates the price of tokenA in terms of tokenB."
      },
      "removeLiquidity(address,address,uint256,uint256,uint256,address,uint256)": {
        "notice": "Removes liquidity from the pool."
      },
      "reserveA()": {
        "notice": "The total reserve of tokenA held by this contract."
      },
      "reserveB()": {
        "notice": "The total reserve of tokenB held by this contract."
      },
      "swapExactTokensForTokens(uint256,uint256,address[],address,uint256)": {
        "notice": "Swaps an exact amount of an input token for as much as possible of an output token."
      },
      "tokenA()": {
        "notice": "The address of the first token in the liquidity pool."
      },
      "tokenB()": {
        "notice": "The address of the second token in the liquidity pool."
      }
    },
    "version": 1
  },
  "storageLayout": {
    "storage": [
      {
        "astId": 159,
        "contract": "contracts/SimpleSwap.sol:SimpleSwap",
        "label": "_balances",
        "offset": 0,
        "slot": "0",
        "type": "t_mapping(t_address,t_uint256)"
      },
      {
        "astId": 165,
        "contract": "contracts/SimpleSwap.sol:SimpleSwap",
        "label": "_allowances",
        "offset": 0,
        "slot": "1",
        "type": "t_mapping(t_address,t_mapping(t_address,t_uint256))"
      },
      {
        "astId": 167,
        "contract": "contracts/SimpleSwap.sol:SimpleSwap",
        "label": "_totalSupply",
        "offset": 0,
        "slot": "2",
        "type": "t_uint256"
      },
      {
        "astId": 169,
        "contract": "contracts/SimpleSwap.sol:SimpleSwap",
        "label": "_name",
        "offset": 0,
        "slot": "3",
        "type": "t_string_storage"
      },
      {
        "astId": 171,
        "contract": "contracts/SimpleSwap.sol:SimpleSwap",
        "label": "_symbol",
        "offset": 0,
        "slot": "4",
        "type": "t_string_storage"
      },
      {
        "astId": 796,
        "contract": "contracts/SimpleSwap.sol:SimpleSwap",
        "label": "tokenA",
        "offset": 0,
        "slot": "5",
        "type": "t_contract(IERC20)729"
      },
      {
        "astId": 800,
        "contract": "contracts/SimpleSwap.sol:SimpleSwap",
        "label": "tokenB",
        "offset": 0,
        "slot": "6",
        "type": "t_contract(IERC20)729"
      },
      {
        "astId": 803,
        "contract": "contracts/SimpleSwap.sol:SimpleSwap",
        "label": "reserveA",
        "offset": 0,
        "slot": "7",
        "type": "t_uint256"
      },
      {
        "astId": 806,
        "contract": "contracts/SimpleSwap.sol:SimpleSwap",
        "label": "reserveB",
        "offset": 0,
        "slot": "8",
        "type": "t_uint256"
      }
    ],
    "types": {
      "t_address": {
        "encoding": "inplace",
        "label": "address",
        "numberOfBytes": "20"
      },
      "t_contract(IERC20)729": {
        "encoding": "inplace",
        "label": "contract IERC20",
        "numberOfBytes": "20"
      },
      "t_mapping(t_address,t_mapping(t_address,t_uint256))": {
        "encoding": "mapping",
        "key": "t_address",
        "label": "mapping(address => mapping(address => uint256))",
        "numberOfBytes": "32",
        "value": "t_mapping(t_address,t_uint256)"
      },
      "t_mapping(t_address,t_uint256)": {
        "encoding": "mapping",
        "key": "t_address",
        "label": "mapping(address => uint256)",
        "numberOfBytes": "32",
        "value": "t_uint256"
      },
      "t_string_storage": {
        "encoding": "bytes",
        "label": "string",
        "numberOfBytes": "32"
      },
      "t_uint256": {
        "encoding": "inplace",
        "label": "uint256",
        "numberOfBytes": "32"
      }
    }
  }
}